:020000040800F2
:10000000300500209D010008CF1C0008C71B000818
:10001000CD1C0008D5020008F129000800000000EE
:10002000000000000000000000000000851F000824
:10003000D702000800000000D11C0008B51F00080E
:10004000B7010008B7010008B7010008B7010008B0
:10005000B7010008B7010008B7010008B7010008A0
:10006000B7010008B7010008B7010008B701000890
:10007000B7010008B7010008B7010008B701000880
:10008000B7010008B7010008B7010008B701000870
:10009000B7010008B7010008B7010008B701000860
:1000A000B7010008B7010008B7010008B701000850
:1000B00059200008B7010008B7010008B70100087F
:1000C000B7010008B7010008B7010008B701000830
:1000D000B7010008B7010008B7010008B701000820
:1000E000B7010008B7010008B7010008B701000810
:1000F000B7010008B7010008B7010008B701000800
:10010000B7010008B7010008B7010008B7010008EF
:10011000B7010008B7010008B7010008B7010008DF
:10012000B7010008B7010008B7010008B7010008CF
:10013000B7010008B7010008B7010008B7010008BF
:10014000B7010008B7010008B7010008B7010008AF
:10015000B7010008B7010008B7010008B70100089F
:10016000B7010008B7010008B7010008B70100088F
:10017000B7010008B7010008B7010008000000003F
:10018000B7010008B7010008DFF80CD000F090F8C4
:1001900000480047312A0008300500200648804703
:1001A00006480047FEE7FEE7FEE7FEE7FEE7FEE75C
:1001B000FEE7FEE7FEE7FEE71520000889010008DC
:1001C0002DE9F05F0546002092469B46884606468C
:1001D000814640241BE0284641464746224600F01F
:1001E00056F853465A46C01A914110D31146184644
:1001F000224600F03DF82D1A67EB01084F462246D3
:100200000120002100F034F817EB00094E41201EB8
:10021000A4F10104DFDC484631462A46434600F09B
:1002200000B830BCBDE8C09F40EA01039B0703D083
:1002300009E008C9121F08C0042AFAD203E011F825
:10024000013B00F8013B521EF9D27047D2B201E0E7
:1002500000F8012B491EFBD270470022F6E710B5CB
:1002600013460A4604461946FFF7F0FF204610BD24
:10027000202A04DB203A00FA02F100207047914066
:10028000C2F1200320FA03F3194390407047202A5B
:1002900004DB203A21FA02F00021704721FA02F330
:1002A000D040C2F120029140084319467047000037
:1002B000064C074D06E0E06840F0010394E80700B3
:1002C00098471034AC42F6D3FFF762FF202E0008A7
:1002D000402E0008FEE7704770B5044600F046F96E
:1002E0000546601C02D004484068044400F03EF912
:1002F000401BA042FAD370BD1C0000202DE9F04F36
:10030000DFF83492002309F1040A012403250AF1DD
:10031000040B87B00F270BF1040E04E104FA03F677
:1003200032407CD0D1F804C0BCF1010F08D0BCF140
:10033000020F05D0BCF1110F02D0BCF1120F29D170
:10034000D0F808C0CDF800C04FEA430C05FA0CF80D
:10035000CDF80CC0DDF800C02CEA080CCDF800C0C8
:10036000D1F80C80DDF80CC008FA0CF8DDF800C0FC
:1003700048EA0C08C0F80880D0F8048091F804C05E
:1003800028EA0608CCF3001C0CFA03FC4CEA080C23
:10039000C0F804C0D1F804806FEA080C5FEA8C7CD6
:1003A00009D1D0F82CC02CEA060CC8F3C0069E4038
:1003B00046EA0C06C662D0F80CC04FEA430805FABC
:1003C00008F62CEA060CCDF8148002968E6806FA20
:1003D00008F646EA0C06C6604E68022E01D0122EC0
:1003E00015D1DE0800EB86060396366A4FEA437C99
:1003F0004FEADC6807FA08FC26EA0C06D1F810C0C0
:100400000CFA08FC4CEA060C039EC6F820C00668ED
:10041000DDF808C026EA0C0691F804C000E081E08F
:10042000DDF814800CF0030C0CFA08FC4CEA060C06
:10043000C0F800C04E68F60074D5404ED6F860C0D3
:100440004CF0010CC6F860C0366E23F0030C06F0C9
:10045000010600963A4E66440296D6F808C09E07FA
:100460004FEA167807FA08F62CEA060CB0F1904F1E
:1004700004D0344EB04203D101261BE0002619E01F
:10048000314EB04201D1022614E0304EB04201D1CB
:1004900003260FE02E4EB04201D104260AE02D4E75
:1004A000B04201D1052605E02B4EB04201D106260F
:1004B00000E0072606FA08F646EA0C06DDF808C052
:1004C000CCF80860D9F80060CC46D1F80480964397
:1004D0005FEAC83800D51643CCF80060DAF800604F
:1004E000D446D1F8048096435FEA883800D5164395
:1004F000CCF80060DBF80060DC46D1F8048096435D
:100500005FEAC82800D51643CCF80060DEF800602A
:10051000F446D1F8048096435FEA882800D5164354
:10052000CCF800605B1C0A6832FA03F67FF4F6AE82
:1005300007B000F013B800000004014000100240B2
:10054000000001400004004800080048000C00487A
:1005500000100048001400480018004830BCBDE8F6
:10056000C08F0AB18161704781627047014880681D
:10057000704700001C000020024881684268114456
:10058000816070471C000020094810B501680024F4
:1005900041F480710160032000F072F8002000F047
:1005A00009F808B1012401E000F026F8204610BD4A
:1005B0000020024070B50E4E05460024706898B1C8
:1005C0004FF47A71B1FBF0F00A490968B1FBF0F021
:1005D00000F016FE40B9102D06D200222946501E0A
:1005E00000F02EF8356000E00124204670BD0000C8
:1005F0001C00002028000020094808B5016E41F0C9
:1006000001010166016E01F001010091816D41F06F
:1006100080518165806D00F08050009008BD000021
:1006200000100240002809DB00F01F020121914068
:100630004009800000F1E020C0F800117047000080
:10064000F0B40E4B1B680C46C3F30223C3F107053D
:10065000042D00D90425191D072901D2002300E02B
:10066000DB1E012606FA05F1491E214099409E40F5
:10067000761E16403143F0BC02F0BBB90CED00E031
:10068000064900F0070208684FF6FF03184040EAE9
:100690000220034A10430860704700000CED00E0A0
:1006A0000000FA051649B0F5007F0868C0F3412044
:1006B00009D0022805D0086820F4C06040F48060AA
:1006C0000860002070470128FBD0086820F4C06053
:1006D00040F4007008600B483222006850430A4A18
:1006E000B0FBF2F0401C00E0401E4A69520501D503
:1006F0000028F9D148694005E3D503207047000080
:10070000007000402800002040420F0002480068AE
:1007100000F4C06070470000007000402DE9F84F01
:10072000044600270088E54D3E46010504F1200BF4
:100730001DD5606E78B1B0F5800F11D0B0F5000F07
:1007400004D0B0F5400F22D001270FE0E86840F454
:100750008030E8601BE00021201D01F0BBFA03E0BF
:100760000021584601F04CFB070010D03E4620887F
:10077000C00426D5A06EC0B1B0F1807F1AD0B0F110
:10078000007F0DD0B0F1407F19D0012718E0D5F8D7
:100790008800616E20F440000843C5F88800E6E751
:1007A000E86840F48030E86009E00021201D01F095
:1007B00091FA03E00021584601F022FB0746F7B109
:1007C0003E46206880033AD5A86D4FF00008C0006F
:1007D00009D4A86D40F08050A865A86D4FF00108BD
:1007E00000F080500090DFF8D8A2DAF8001041F451
:1007F0008071CAF80010FFF7B9FE814610E0D5F805
:100800008800A16E20F040700843C5F88800D8E742
:10081000FFF7ACFEA0EB0900022801D9032705E091
:10082000DAF80000C005F3D5002F7CD04FEA0706A8
:10083000B8F1000F03D0A86D20F08050A865207893
:10084000C00707D0D5F88800A16B20F0030008434B
:10085000C5F888002078800707D5D5F88800E16BB7
:1008600020F00C000843C5F888002078400707D521
:10087000D5F88800216C20F030000843C5F88800C6
:100880002078000707D5D5F88800616C20F0C000FB
:100890000843C5F888002078C00607D5D5F8880039
:1008A000A16C20F440700843C5F8880020788006C9
:1008B00007D5D5F88800E16C20F440600843C5F8FE
:1008C00088002088800507D5D5F88800E16D20F4E0
:1008D00040200843C5F888002088400507D5D5F892
:1008E0008800216E20F440100843C5F88800207865
:1008F000400607D5D5F88800216D20F44050084304
:10090000C5F888002078000607D5D5F88800616D05
:1009100020F440400843C5F888002088C00509D568
:10092000D5F8880000E01CE0A16D20F440300843B9
:10093000C5F8880020884FF0006780044FF0806879
:100940004FD5D5F88800E16E20F040600843C5F827
:100950008800E06EB8423CD1E86840F48010E8605E
:100960003FE0D5F8900010F4407015D0D4F8841012
:10097000814211D0D5F89000D5F8901020F4407045
:1009800041F48031C5F89010D5F8901021F48031F1
:10099000C5F89010C5F89000C00710D0FFF7E6FD2D
:1009A000074641F2883906E0FFF7E0FDC11B4945E3
:1009B00001D903263CE7D5F890008007F4D5D5F897
:1009C0009000D4F8841020F440700843C5F89000DB
:1009D0002EE7404505D10121201D01F07BF900B132
:1009E00006462068000317D5D5F88800216F20F04F
:1009F00040600843C5F88800206FB84204D1E86819
:100A000040F48010E86007E0404505D10121201D39
:100A100001F060F900B106462068400317D5D5F80B
:100A20008800616F20F040600843C5F88800606F5F
:100A3000B84204D1E86840F48010E86007E040451F
:100A400005D10121201D01F045F900B1064620889D
:100A500040041AD5D5F88800A16F20F04050084313
:100A6000C5F88800A06FB0F1805F03D0B0F1005FDF
:100A700005D00AE00221201D01F02CF903E002213B
:100A8000584601F0BDF900B106462088000407D59C
:100A9000D5F88800E16F20F080400843C5F8880051
:100AA0002068C00307D555F8880FD4F8801020F0CF
:100AB000004008432860304600F004B800100240AF
:100AC0000070004018BCBDE8E08F00002DE9F04741
:100AD0000F46050058D0404E306800F00700B8427D
:100AE00009D2306820F0070038433060306800F0E9
:100AF0000700B84248D12878384CC0072CD0686825
:100B0000032811D0022812D0216898B14905002984
:100B10003ADAA16821F003010143A160FFF726FD45
:100B2000804641F2883910E021688901EFE72168A9
:100B30008903ECE78907EAE7FFF718FDA0EB080156
:100B4000494502D90320BDE8F087A068696800F034
:100B50000C00B0EB810FEFD12878800705D5A06895
:100B6000A96820F0F0000843A060306800F007009A
:100B7000B8420BD9306820F0070038433060306845
:100B800000F00700B84201D00120DCE728784007D8
:100B900005D5A068E96820F4E0600843A0602878E3
:100BA000000706D5A068296920F4605040EAC1001A
:100BB000A06000F03FF8A168094AC1F30311515C3D
:100BC00001F01F01C8400749086007480068BDE8F8
:100BD000F047FFF7EFBC0000002002400010024089
:100BE000D82D0008280000201C00002005480649D8
:100BF00000688968054AC1F30221515C01F01F01B8
:100C0000C84070472800002000100240182E00083D
:100C10000548064900688968054AC1F3C221515C4C
:100C200001F01F01C840704728000020001002405A
:100C3000182E000870B52549002318468A68CC682C
:100C400012F00C0204F00306214C4FEA640509D0AF
:100C50000C2A05D0042A32D0082A00D1284670BDBB
:100C6000012E10D10B681B0704D4D1F89430C3F3C4
:100C7000032302E00B68C3F30313164E56F8233028
:100C8000DAB10C2AEBD1C86800F00300022818D0B2
:100C9000032818D01846CA68CB68C2F30212C3F3FF
:100CA00006234343521CB3FBF2F2C868C0F3416011
:100CB000401C4000B2FBF0F070BD184670BD2046ED
:100CC00070BD2046E7E72846E5E700000010024037
:100CD0000024F400E82D00082DE9F84304006FD04B
:100CE000FE4DA86800F00C06E86800F003072078C5
:100CF000C00664D576B10C2E01D1012F0AD0A069AF
:100D0000002828687AD040F001002860FFF72EFC08
:100D100080465DE02868800702D5A0690028DED003
:100D2000216A2868000703D5286800F0F00004E075
:100D3000D5F89400F02202EA1010814216D9084634
:100D400001F0E2F800283BD1286840F00800286054
:100D50002868216A20F0F000084328606868E1698B
:100D600020F47F4040EA0120686016E0286840F0E7
:100D7000080028602868216A20F0F00008432860F5
:100D80006868E16920F47F4040EA0120686026B984
:100D9000206A01F0B9F80028D5D1FFF74BFFA96808
:100DA000CF4AC1F30311515C01F01F01C840CD4986
:100DB0000860CD480068FFF7FDFB00287ED12EE0DB
:100DC000CAE000BFFFF7D2FBA0EB0800022876D8EC
:100DD00028688007F6D5286840F008002860286851
:100DE000216A20F0F000084328606868E16920F477
:100DF0007F4040EA0120686011E0FFE720F0010039
:100E00002860FFF7B3FB804606E000BFFFF7AEFBAC
:100E1000A0EB08000228DAD828688007F6D42078EA
:100E2000C00740D0082E18D00C2E01D1032F14D0AB
:100E30006068B0F5803F17D0B0F5A02F286817D0B4
:100E400020F480302860286820F4802028606068C2
:100E5000E0B1FFF78BFB804614E02868800322D5C1
:100E60006068002878D01EE0286840F48030EDE704
:100E700040F480202860F7E7FFF778FBA0EB08003C
:100E80006428A4D828688003F6D50CE0FFF76EFB31
:100E9000804605E0FFF76AFBA0EB0800642896D8BF
:100EA00028688003F6D4207880073BD5042E11D023
:100EB0000C2E01D1022F0DD0E06801E092E1F1E0AB
:100EC000002828681ED040F480702860FFF74EFB91
:100ED00007460CE0286840050CD5E0680028C1D022
:100EE00008E000BFFFF742FBC01B022893D8286828
:100EF0004005F7D56868217C20F0F85040EA016091
:100F000068600FE020F480702860FFF72FFB074631
:100F100005E000BFFFF72AFBC01B0228B1D82868F4
:100F20004005F7D42078000729D560690028D5F856
:100F3000940012D040F00100C5F89400FFF716FBB2
:100F4000074604E0FFF712FBC01B022899D8D5F82A
:100F500094008007F6D512E000E120F00100C5F80A
:100F60009400FFF703FB074605E000BFFFF7FEFA1A
:100F7000C01B022885D8D5F894008007F6D42078C5
:100F8000400766D5A86D0027C00008D4A86D40F0C2
:100F90008050A865A86D012700F08050009053484C
:100FA0000168C90512D40168814641F4807101606D
:100FB000FFF7DCFA804605E0FFF7D8FAA0EB08005F
:100FC00002286FD8D9F80000C005F5D5A06801281F
:100FD00016D00528D5F8900017D020F00100C5F8EC
:100FE0009000D5F8900020F0040000BFC5F89000F4
:100FF000A06841F28839C0B1FFF7B8FA80460FE027
:10100000D5F8900040F00100F0E740F00400C5F88A
:101010009000F5E7FFF7AAFAA0EB0801494541D88F
:10102000D5F890008007F5D50EE0FFF79FFA8046CF
:1010300006E000BFFFF79AFAA0EB0801494531D856
:10104000D5F890008007F5D41FB1A86D20F080502E
:10105000A865A06A38B302280AD00C2E7ED0286872
:1010600020F080702860286810F0205F77D0AAE018
:10107000E868E26A00F0030191422BD1216B00F095
:10108000700209011039914224D1626B00F4FE41D3
:10109000B1EB022F1ED1A26B00F40031072A03D05E
:1010A000012202E09DE089E00022914212D1A18F4D
:1010B00000F4C00249084905A1F50011914209D187
:1010C00094F8401000F0C06049084906A1F1007191
:1010D00081425CD00C2E41D0286809E0001002400B
:1010E000D82D0008280000201C00002000700040BF
:1010F00040017ED42868C0007BD4286820F080702E
:101100002860FFF733FA064605E000BFFFF72EFA26
:10111000801B022865D828688001F7D4D4E90B0128
:101120006FF00F0202EB01110843A18F520449082E
:1011300002EB4151626B41EA0221084394F84010EE
:101140004FF07E42490802EB41610843A16B090957
:1011500040EA4140E968284A114001E049E02EE0B8
:101160000843E860286840F080702860E86840F034
:101170008070E860FFF7FAF9044604E0FFF7F6F93B
:10118000001B02282DD828688001F7D52FE0286899
:1011900080012CD4286840F080702860E86840F016
:1011A0008070E860FFF7E2F9044604E0FFF7DEF93B
:1011B000001B022815D828688001F7D517E0E868D9
:1011C00020F00300E860E8680C490840E860FFF799
:1011D000CDF9044608E000BFFFF7C8F9001B02285C
:1011E00002D90320BDE8F88328688001F4D40020E8
:1011F000F8E70120F6E700008C809DF9FFFFEEFE86
:1012000010B5401EB0F1807F01D3012010BD4FF01A
:10121000E02460610F21601701F0EBFB0020A0616A
:1012200007202061002010BD704770477047000004
:10123000F0B590F83C20012A39D0012480F83C40D8
:10124000022280F83D20026853689568194E1A4FB3
:10125000B24201D0BA4204D123F4700C4B6843EA85
:101260000C0323F0700C0B6843EA0C035360026814
:10127000B24210D0B2F1804F0DD0104B9A420AD03A
:101280000F4B9A4207D00F4B9A4204D0BA4202D079
:101290000D4B9A4204D1896825F08003194391606F
:1012A00080F83D40002180F83C100846F0BD022047
:1012B000F0BD0000002C014000340140000400405B
:1012C00000080040000C00400040014010B5040040
:1012D00003D094F83D0010B107E0012010BD0020BC
:1012E00084F83C00204600F00DF8022084F83D0010
:1012F000211D206800F0B6FE012084F83D0000208A
:1013000010BD000010B586B0044614216846FEF7F3
:10131000A4FF21681B48B1F1804F21D01A4A9142A5
:101320001CD1816D41F002018165816D01F00201E6
:101330000591C16C41F00101C164C06C002100F055
:1013400001000590402000900220CDE90101CDE987
:10135000031069464FF09040FEF7D0FF06B010BD75
:10136000816D41F001018165806D002200F0010076
:10137000059011461C20FFF763F91C20FFF752F976
:10138000ECE700000010024000040040022180F859
:101390003D1001688A68084B1A40062A06D0B2F54B
:1013A000803F03D00A6842F001020A60012180F800
:1013B0003D10002070470000070001000168CA6866
:1013C00042F00102CA6001688868064A1040062897
:1013D00006D0B0F5803F03D0086840F001000860F7
:1013E0000020704707000100022180F83D100168CD
:1013F0000A6A41F211131A4207D10A6A9B101A4273
:1014000003D10A6822F001020A60012180F83D1030
:10141000002070470168CA6822F00102CA600068B3
:10142000016A41F21112114207D1016A9210114270
:1014300003D1016821F00101016000207047000024
:1014400070B5044690F83C00012817D0012584F8B7
:101450003C50022084F83D00226890682E4B1840D2
:1014600020F47F4090600868502830D00DDC2028A0
:101470004DD005DC98B310283BD148E0022070BD68
:10148000302844D0402834D139E0602828D0702852
:1014900006D0B0F5805F2CD0B0F5005F29D10AE00E
:1014A000CB68D1E90121206800F049FE20688168FD
:1014B00041F0770109E0CB68D1E90121206800F013
:1014C0003EFE2068816841F48041816011E0CA6875
:1014D0004968206801F014F85021206807E016E000
:1014E000CA684968206801F01CF86021206800F093
:1014F00030FE84F83D50002084F83C0070BDCA687E
:101500004968206800F0FCFF40212068EFE722686E
:1015100001461046EBE7000088FFFEFF704770B5FC
:101520000446006801694FF00005C943890715D4D6
:10153000C168C943890711D4E91E016101202077E0
:10154000206880698007204602D0FFF7E7FF04E0AB
:1015500000F0CEF8204600F07CF92577206801697C
:10156000C943490717D4C168C943490713D46FF069
:1015700004010161022020772068806910F4407F17
:10158000204602D0FFF7CAFF04E000F0B1F8204681
:1015900000F05FF9257720680169C943090716D46F
:1015A000C168C943090712D46FF008010161042022
:1015B00020772068C0698007204602D0FFF7AEFF81
:1015C00004E000F095F8204600F043F92577206804
:1015D0000169C943C90617D4C168C943C90613D4F0
:1015E0006FF010010161082020772068C06910F4B5
:1015F000407F204602D0FFF791FF04E000F078F82A
:10160000204600F026F9257720680169C943C907FB
:1016100008D1C168C943C90704D1891E01612046A8
:1016200000F04EF920680169C943090609D4C16870
:10163000C943090605D46FF0800101612046FFF718
:10164000F4FD20680169C943C90509D4C168C943CB
:10165000090605D46FF4807101612046FFF7E4FDAF
:1016600020680169C943490609D4C168C9434906CC
:1016700005D46FF040010161204600F0E2F92068D6
:101680000169C94389060BD4C168C943890607D4D7
:101690006FF0200101612046BDE87040FFF7C6BD34
:1016A00070BD000010B586B0044614216846FEF7F0
:1016B000D4FD2068B0F1804F16D10C48C16C41F0C8
:1016C0000101C164C06C694600F001000590202052
:1016D00000900220019000200290039001200490CD
:1016E0004FF09040FEF70AFE06B010BD0010024019
:1016F000704770B5044690F83C000D4601280ED0A6
:10170000012684F83C60022084F83D000C2A45D074
:1017100007DC5AB1042A1BD0082A78D12CE0022019
:1017200070BD102A4ED0142A71D15DE0206800F0FF
:1017300019FD2068816941F0080181612068816993
:1017400021F004018161206881692A69114311E057
:10175000206800F055FD2068816941F400618161D5
:101760002068816921F480618161206881692A692A
:1017700041EA022181614AE0206800F089FD206889
:10178000C16941F00801C1612068C16921F004010B
:10179000C1612068C1692A69114311E0206800F025
:1017A000BFFD2068C16941F40061C1612068C16961
:1017B00021F48061C1612068C1692A6941EA02217E
:1017C000C16124E0206800F0E5FD2068416D41F032
:1017D000080141652068416D21F0040141652068E0
:1017E000416D2A69114311E0206800F00BFE20686A
:1017F000416D41F4006141652068416D21F48061D3
:1018000041652068416D2A6941EA0221416584F8F9
:101810003D60002084F83C0070BD10B5040003D08A
:1018200094F83D0010B107E0012010BD002084F8BD
:101830003C00204600F00CF8022084F83D00211DF9
:10184000206800F00FFC012084F83D00002010BD4E
:101850007047704710B504460068012200F062FC32
:101860001148216881420BD01048814208D01048AD
:10187000814205D00F48814202D00F48814203D1F6
:10188000486C40F400404864206881680B4A11406D
:10189000062906D0B1F5803F03D0016841F001016F
:1018A0000160002010BD0000002C01400034014008
:1018B0000040014000440140004801400700010091
:1018C0002DE9F041414988427DD10846FFF7A2FD4C
:1018D0003F48FFF789FD3F4C3F484049B4F900209D
:1018E0003B4D4FF090464FF48078002722B1012AFB
:1018F00021D0022A5DD13EE02A68526A384BB3F902
:10190000003092FBF3F202600A8001221146304659
:10191000FEF727FE012202213046FEF722FE0122B9
:1019200080213046FEF71DFE012241463046FEF77B
:1019300018FE01201DE02A68526A2A4BB3F90030D4
:1019400092FBF3F202604A80002201213046FEF74A
:1019500008FE012202213046FEF703FE012280210B
:101960003046FEF7FEFD012241463046FEF7F9FD06
:10197000022020801DE02A68526A1B4BB3F9003018
:1019800092FBF3F202608A80002201213046FEF7CA
:10199000E8FD002202213046FEF7E3FD012280210E
:1019A0003046FEF7DEFD012241463046FEF7D9FD06
:1019B0002780286847620548FFF700FDBDE8F04131
:1019C0000348FFF7E3BCBDE8F08100002C000020D5
:1019D0006C000020080000201800002010000020EB
:1019E0000A0000200C0000200E00002070B5044604
:1019F00090F83C00012812D0012584F83C500220C8
:101A000084F83D00204600F035FD01004FF0000055
:101A100007D084F83D5084F83C00012070BD0220BE
:101A200070BD2168CA6822F04002CA602168CA6895
:101A300022F48042CA6084F83D5084F83C000020C3
:101A400070BD704710B5040002D0606F10B107E0A0
:101A5000012010BD002084F87000204600F026F818
:101A6000242060672068016821F0010101602046A0
:101A700000F022FE0128ECD0606A10B1204600F090
:101A80008BFD2068416821F49041416020688168A5
:101A900021F02A0181602068016841F001010160A4
:101AA0002046BDE8104000F0DBBD000010B586B058
:101AB000044614216846FEF7D0FB1349206888428B
:101AC00020D11248016E41F480410166016E01F49B
:101AD00080410591C16C41F00101C164C06C69464F
:101AE00000F0010005904FF4C060009002200190CA
:101AF0000020029003200390072004904FF09040B4
:101B0000FEF7FCFB06B010BD00380140001002409B
:101B10002DE9F8430446406F1F4616460D4620281F
:101B20004FD1CDB1C6B194F87000012849D0012041
:101B300084F870004FF00008C4F87C8021206067B2
:101B4000FEF714FDA4F850608146A4F85260A06826
:101B5000B0F5805F03D004E00120BDE8F883206980
:101B600028B12E465FF0000584F8708010E0002652
:101B7000FAE78021204600F0E9FEB8B9C6B116F8B0
:101B8000010B21680885B4F85200401EA4F85200E9
:101B9000B4F852004B464FF0000200970028E8D1FD
:101BA0004FF04001204600F0D1FE30B10320D4E7D1
:101BB00035F8020BC0F30800E3E72020606700203F
:101BC000CBE70220C9E7FEE710B58EB000240794EA
:101BD000089409940A940B940C941C2168460D9463
:101BE000FEF73BFB16484FF0804101600921C0E938
:101BF000011440F69F71C0E903148461FFF766FB8E
:101C00004FF48050079007A90D48FFF719FC0C48C6
:101C1000FFF703FE0B940BA909480D94FFF708FB8F
:101C20006020CDE90004029400226946044804942F
:101C3000FFF75FFD0248FFF735FD0EB010BD000055
:101C40002C00002010B588B014216846FEF705FB73
:101C500000241248059406940F490794C0E9001423
:101C60004FF6FF71C0E9024104618461FFF72EFB6A
:101C700007200090502001900220029069460494B1
:101C80000648FFF7B3FE2020059005A907940348F6
:101C9000FFF7CEFA08B010BD000400406C00002031
:101CA0000948084901604FF4E13141600021816039
:101CB0000C22C160C0E904128161C161016241620C
:101CC000FFF7C0BE00380140AC000020FEE77047BF
:101CD000704700002DE9F041444C05468846E06815
:101CE0000026810728680DD0E16801F003018142D8
:101CF00016D1A8B1E0686968C0F30210401C8842A0
:101D00000ED120E0012804D0022805D0032807D1F5
:101D100008E02168890701E021684905002907DBFF
:101D200001265FE02168890302D421684903F5E7B1
:101D3000E1686A686FF00F0321F0730103EB021290
:101D400011430143E160206820F080602060FEF7CD
:101D50000DFC074605E000BFFEF708FCC01B02288B
:101D600037D820680001F7D4B8F1000F18D0B8F1C7
:101D7000010F1ED0287D4FF07E41400801EB4060EE
:101D8000A96840EA01202169194A114008432061ED
:101D9000206840F080602060FEF7E8FB07461AE00C
:101DA000A868E9680002090940EA41402169114A2E
:101DB000EBE7288A1049400801EB4050A96840EA47
:101DC000012021690D4AE0E7FEF7D0FBC01B022885
:101DD00001D9032606E020680001F5D52069A9692C
:101DE000084320613046BDE8F08100000010024049
:101DF000FF80FFF9FF80FDFF0000E0FFFF809FFFF5
:101E00002DE9F0413D4C06468846E06800258107F3
:101E100030680DD0E16801F00301814216D1A8B10C
:101E2000E0687168C0F30210401C88420ED120E0C7
:101E3000012804D0022805D0032807D108E0216832
:101E4000890701E021684905002907DB012551E0E8
:101E50002168890302D421684903F5E7E1687268C3
:101E60006FF00F0321F0730103EB021211430143E2
:101E7000E160206820F080502060FEF777FB074685
:101E800005E000BFFEF772FBC01B022829D82068BE
:101E90008000F7D4B8F1000F15D0307C4FF07E41B0
:101EA000400801EB4060B16840EA01206169144AD2
:101EB000114008436061206840F080502060FEF7C8
:101EC00055FB07460FE0B068F1680002090940EAD7
:101ED000414061690B4AEBE7FEF748FBC01B022853
:101EE00001D9032506E020688000F5D56069716995
:101EF000084360612846BDE8F08100000010024000
:101F0000FF80FFF9FF80FDFFF8B51C4D0646002459
:101F1000A86DC00002D5FEF7F9FB0DE0A86D40F0FA
:101F20008050A865A86D00F080500090FEF7EEFB91
:101F3000A96D21F08051A965B0F5007F04D0802EF5
:101F400007D94FF003040AE0802E08D9A02E01D84B
:101F500004E001D1022402E0702E00D101240848DF
:101F6000016821F0070121430160006800F00700CB
:101F7000A04201D00120F8BD0020F8BD00100240B1
:101F8000002002407047000010B588B004461C21B4
:101F90006846FEF762F96020CDE900040020029057
:101FA0000246049069460248FFF7A3FB08B010BD43
:101FB0002C000020FEF7E0BA30B5B9B0442122A8C9
:101FC000FEF74BF9142133A8FEF747F9882168463C
:101FD000FEF743F910200125229000242895602067
:101FE000CDE9294022A82C94FEF776FE0F20CDE9FA
:101FF000330435943694002133A83794FEF766FDF8
:10200000684600950E94FEF789FB6802FEF74AFBCE
:1020100039B030BD0D48016841F4700101600C48D1
:10202000016841F001010160002181600268094BF3
:102030001A4002608214C260026822F480220260A8
:1020400081610249C00380390860704788ED00E073
:1020500000100240FFFFF6EA0148FFF760BA0000F7
:102060002C0000202DE9F0470268264B264D274E14
:10207000274F284C4FF0804A984209D0504507D04E
:10208000A84205D0B04203D0B84201D0A04204D14A
:1020900022F0700C4A6842EA0C02DFF87CC0DFF8DC
:1020A0007C80DFF87C9098420FD050450DD0A8423C
:1020B0000BD0B04209D0B84207D0A04205D060454D
:1020C00003D0404501D0484503D122F44075CA6889
:1020D0002A434D6922F080022A4302608A68C26264
:1020E0000A688262984207D0A04205D0604503D0BA
:1020F000404501D0484501D1096901630121416191
:10210000BDE8F087002C01400004004000080040BA
:10211000000C0040003401400040014000440140F8
:102120000048014010B501F01F030121046A9940E5
:102130008C430462016A9A401143016210BD10B5DC
:10214000846842EA032224F47F440A4322438260E3
:1021500010BD826822F070020A4342F007018160DC
:10216000704700002DE9F043026A22F0010202628A
:10217000056A436882691C4C25F0020522400C6800
:1021800022F0030214438A68194E2A43174D194F4F
:10219000DFF864C0DFF86490A84207D0B04205D0F1
:1021A000B84203D0604501D0484506D122F0080866
:1021B000CA6842EA080222F00402A84207D0B042EC
:1021C00005D0B84203D0604501D0484505D14D69DE
:1021D00023F440731D438B692B434360846149683A
:1021E00041630262BDE8F0838FFFFEFF002C0140D7
:1021F00000340140004001400044014000480140DB
:10220000F0B5026A22F010020262056A4268836930
:10221000194C1B4E23400C6823F4407343EA0424FA
:1022200025F020038D6843EA0513144DA84201D020
:10223000B04206D1CF6823F0800343EA071323F0AE
:102240004003A8420AD0B04208D00E4DA84205D0A3
:102250000D4DA84202D00D4DA84207D14D6922F480
:10226000406242EA85028D6942EA850242608461E9
:10227000496881630362F0BDFF8FFFFE002C0140BF
:10228000003401400040014000440140004801404A
:10229000F0B5026A22F480720262056A4368C2697C
:1022A000194C1B4E22400C6822F00302144325F403
:1022B00000728D6842EA0522144DA84201D0B04256
:1022C00006D1CF6822F4006242EA072222F480623B
:1022D000A8420AD0B04208D00E4DA84205D00E4DFB
:1022E000A84202D00D4DA84207D14D6923F44053B6
:1022F00043EA05138D6943EA05134360C4614968E5
:10230000C1630262F0BD00008FFFFEFF002C0140A0
:1023100000340140004001400044014000480140B9
:1023200030B5026A22F480520262046A4268C369CC
:10233000124D24F400542B400D6823F4407343EAFB
:1023400005238D6844EA05340D4DA8420BD00D4D90
:10235000A84208D00C4DA84205D00C4DA84202D08E
:102360000B4DA84204D14D6922F4804242EA851205
:102370004260C36149680164046230BDFF8FFFFEA3
:10238000002C014000340140004001400044014065
:102390000048014030B5026A22F480320262046AC9
:1023A0004268436D114D2B400D681D4324F40033EA
:1023B0000C8943EA04430E4CA0420BD00D4CA042C2
:1023C00008D00D4CA04205D00C4CA04202D00C4CC1
:1023D000A04204D14C6922F4803242EA04224260D5
:1023E000456549688165036230BD00008FFFFEFFCF
:1023F000002C0140003401400040014000440140F5
:102400000048014030B5026A22F480120262046A78
:102410004268436D114D24F400142B400D6843EACB
:1024200005230D8944EA05540D4DA8420BD00D4DEE
:10243000A84208D00C4DA84205D00C4DA84202D0AD
:102440000B4DA84204D14D6922F4802242EA852234
:10245000426043654968C165046230BDFF8FFFFE7D
:10246000002C014000340140004001400044014084
:102470000048014010B50468A26822F070034A6861
:102480001A431E4B1A400B681343A3604A6812F0AC
:102490000F0F30D11211082A2DD2DFE802F02C2CB8
:1024A0002C2C0B2127040B69D1E902210068FFF7CE
:1024B00046FE20E00A68052A10D00268136A146AF2
:1024C00024F00104146202689469096924F0F0049C
:1024D00044EA01119161006803620CE0012010BD23
:1024E0000A698968006800F00BF804E00A698968E5
:1024F000006800F016F8002010BD0000F8FFFEFF95
:1025000010B5036A046A24F001040462846924F0AB
:10251000F00444EA021423F00A020A4384610262CE
:1025200010BD10B5036A23F0100303628369046AC7
:1025300023F4704343EA023224F0A00343EA01117A
:102540008261016210BD000010B5012210214FF020
:102550009040FEF706F840F6DE50FFF715FDBDE8A7
:10256000104000210148FFF775B900002C00002041
:1025700010B54FF47A60FFF707FD00210548FFF71B
:1025800069F90122BDE8104010214FF09040FDF79D
:10259000E8BF00002C00002090F82410C90706D0E6
:1025A00001684A68836A22F400321A434A6090F84C
:1025B0002410890706D501684A68C36A22F480326C
:1025C0001A434A6090F82410490706D501684A6802
:1025D000036B22F480221A434A6090F82410090702
:1025E00006D501684A68436B22F400421A434A60E8
:1025F00090F82410C90606D501688A68836B22F416
:1026000080521A438A6090F82410890606D5016822
:102610008A68C36B22F400521A438A6090F824102F
:10262000490611D501684A68036C22F480121A43E6
:102630004A60016CB1F5801F06D101684A68436C9D
:1026400022F4C0021A434A6090F82410090606D505
:1026500001684A68806C22F4002202434A60704795
:10266000F8B500260446C667FDF780FF05462068DA
:1026700000686FF07E47000708D52B4600224FF414
:1026800000112046009700F061F960B920680068E9
:1026900040070AD52B4600224FF4800120460097C0
:1026A00000F054F908B10320F8BD20206067A0674E
:1026B00084F870600020F8BD2DE9F04105460168FE
:1026C00080682B69EC6918436B6900272343184322
:1026D000924A0B68924C234003430B602868416880
:1026E000EB6821F44051194341602968A86991427F
:1026F00001D02B6A18438B6823F4306303438B604B
:10270000884B2968884899420DD1D0F8880010F08C
:10271000030006D0012868D0022864D0032851D1D4
:1027200065E001244FE0814B99420BD1D0F888003D
:1027300010F00C0055D0042857D0082853D00C288E
:1027400040D154E07A4B99420BD1D0F8880010F078
:10275000300046D0102848D0202844D0302831D12D
:1027600045E0744B99420BD1D0F8880010F0C000BE
:1027700037D0402839D0802835D0C02822D136E043
:102780006D4B99420ED1D0F8880010F4407028D0DB
:10279000B0F5807F29D0B0F5007F24D0B0F5407F20
:1027A00010D124E091420DD1D0F8880010F440609F
:1027B00017D0B0F5806F18D0B0F5006F13D0B0F51A
:1027C000406F14D010245D4B00264FF4004091421E
:1027D00045D174B1022C0FD0042C0FD0082C18D185
:1027E0000FE00024EFE70224EDE70424EBE70824E0
:1027F000E9E7FEF7FBF903E0184602E0FEF71AFAF4
:10280000A8B36A6802EB4201814202D8B0EB023FF2
:1028100001D901276FE0DFF828815CB1022C0CD0D0
:10282000042C13D0082CF4D150082105401846F18F
:10283000000105E0FEF7DAF90AE050084149F5E742
:102840000023FDF7BDFCA0F5407150E0FEF7F2F962
:102850006A68010E0302500818187141F0E7E9692F
:102860004FF6EF7881422FD1092CD2D200E042E01E
:10287000DFE804F006092005230505052600C8E762
:10288000FEF7B4F901E0FEF7C3F94100D5F8040002
:1028900001EB5001B1FBF0F080B2A0F11001414515
:1028A000B7D84FF6F0710140C0F3420001432868E9
:1028B000C16020E024496868EAE7FEF7BBF9E4E775
:1028C0004FF480316868E3E7092CA2D2DFE804F016
:1028D000060918051E05050520009AE7FEF786F98A
:1028E00016E0FEF795F913E080B2A0F11001414522
:1028F0008FD82968C8602E6638466E66BDE8F081BC
:10290000686803EB5001B1FBF0F0EDE7FEF792F9D8
:10291000696800EB5100B0FBF1F0E5E70080004092
:10292000F369FFEF0038014000100240004400400E
:1029300000480040004C0040005000400024F400DB
:10294000FFFC0F00000024F40048E8012DE9F047E7
:102950009A4617460E4604464FF000094FF02008ED
:10296000089D39E0681C37D0FDF700FEA0EB0A0097
:10297000A84222D80DB32068016849072CD5C06948
:10298000C043000528D421684FF400600862206825
:10299000016821F4D07101602068816821F0010193
:1029A0008160C4F87480C4F87880C4F87C8000BF6B
:1029B00084F870900320BDE8F0872068016821F456
:1029C000D07101602068816821F001018160C4F844
:1029D0007480C4F87880EBE72068C06936EA0000AC
:1029E00004D00020B842BDD00020E4E70120F9E780
:1029F000FEE70907090E002804DB00F1E02080F85B
:102A00000014704700F00F0000F1E02080F8141D62
:102A1000704702E008C8121F08C1002AFAD17047A7
:102A20007047002001E001C1121F002AFBD170474E
:102A3000E8B0382291A16846FDF7F6FB38229DA147
:102A40000EA8FDF7F1FB3822A8A11CA8FDF7ECFBAE
:102A50003822B4A12AA8FDF7E7FB3822BFA138A885
:102A6000FDF7E2FB3822CBA146A8FDF7DDFB3822BB
:102A700082A154A8FDF7D8FBFDF786FDFFF79CFA6D
:102A8000142162A8FDF7E9FBD048C16C41F00101B7
:102A9000C164C06C40F2931500F001004FF0904407
:102AA0006790002229462046FDF75BFD012700269E
:102AB0006295CDE9637662A920466596FDF71EFC16
:102AC000FFF782F8FFF7BEF8FFF7EAF800220121CE
:102AD0002046FDF746FD002202212046FDF741FD7C
:102AE000012280212046FDF73CFD012211022046F3
:102AF000FDF737FDB648B41E00680461B448FEF720
:102B00005DFCB348403000680461B1484030FEF7D6
:102B10003DFCB04D032005F110042E812680668017
:102B2000A6806881A881E881A9480A2334226946E1
:102B30008030FEF7EDFF4FF448784046FDF7CCFBC0
:102B40004FF49669B5F90600012804D0022819D07F
:102B500003282FD08DE02E80FFF7F6FCB4F9020099
:102B600033280BDDB4F90410091A0A2906DAB4F97E
:102B70000010401A0A2801DA2F802EE02888002849
:102B8000EAD076E0A5F80260FFF7DEFCB4F90400B5
:102B900041280BDDB4F90210411A0A2906DDB4F907
:102BA0000010401A0A2801DD6F8016E068880028AE
:102BB000EAD05EE0A5F80460FFF7C6FCB4F90000B7
:102BC000412853DDB4F90210411A0A294EDDB4F947
:102BD0000410401A0A2849DDAF80FFF7C9FC4046BF
:102BE000FDF77AFB7A480A23342269468030FEF7E3
:102BF0008FFF4046FDF770FB75480A2334220EA96B
:102C00008030FEF785FF4046FDF766FB70480A23DB
:102C100034221CA98030FEF77BFF4046FDF75CFBA9
:102C20006B480A2334222AA98030FEF771FF4846F8
:102C3000FDF752FB66480A23342238A98030FEF79C
:102C400067FF4846FDF748FB61480A23342246A93E
:102C50008030FEF75DFF4846FDF73EFB5C480A23E7
:102C6000342254A98030FEF753FF02E0A8880028E0
:102C7000A2D040F6B830FDF72FFB63E72330503188
:102C80003030302331503530302332503230313013
:102C900023335031313530233450313338302335FC
:102CA00050313530305335303054313030300D0AFA
:102CB00000000000233050313030302331503530A7
:102CC00030233250323031302333503131353023DC
:102CD0003450313530302335503135303053353084
:102CE0003054313030300D0A0000000023305031B4
:102CF0003030302331503530302332503135393097
:102D00002333503132383023345031313835233584
:102D100050313530305335303054313030300D0A89
:102D2000000000002330503134333023315035302F
:102D3000302332503135393023335031323830235B
:102D4000345031313835233550313530305335300A
:102D50003054313030300D0A000000002330503143
:102D6000343330233150353030233250323031302B
:102D70002333503131353023345031353030233521
:102D800050313530305335303054313030300D0A19
:102D900000000000233050313433302331503530BF
:102DA00030233250323031302333503131353023FB
:102DB000345031333830233550313530305335309D
:102DC0003054313030300D0A000000000010024055
:102DD0002C00002000000020000000000000000087
:102DE0000102030406070809A0860100400D030044
:102DF000801A060000350C0040420F0080841E003F
:102E000000093D0000127A000024F40000366E0133
:102E10000048E801006CDC0200000000010203042D
:102E2000402E0008000000202C000000122A00089C
:102E30006C2E00082C00002004050000222A000847
:102E40000000000000000100000000000000000081
:102E50000000000000000000000000001000000062
:0C2E6000010000000000000000093D001F
:040000050800018965
:00000001FF
